{
  "abi": [
    {
      "inputs": [],
      "stateMutability": "nonpayable",
      "type": "constructor"
    },
    {
      "anonymous": false,
      "inputs": [
        {
          "indexed": false,
          "internalType": "uint256",
          "name": "",
          "type": "uint256"
        }
      ],
      "name": "NoChecker",
      "type": "event"
    },
    {
      "inputs": [],
      "name": "candyMan",
      "outputs": [
        {
          "internalType": "address",
          "name": "",
          "type": "address"
        }
      ],
      "stateMutability": "view",
      "type": "function"
    },
    {
      "inputs": [],
      "name": "candyRates",
      "outputs": [
        {
          "internalType": "uint256",
          "name": "",
          "type": "uint256"
        }
      ],
      "stateMutability": "view",
      "type": "function"
    },
    {
      "inputs": [
        {
          "internalType": "uint256",
          "name": "newRates",
          "type": "uint256"
        }
      ],
      "name": "changeCandyRates",
      "outputs": [],
      "stateMutability": "nonpayable",
      "type": "function"
    },
    {
      "inputs": [],
      "name": "nonceChecker",
      "outputs": [],
      "stateMutability": "nonpayable",
      "type": "function"
    },
    {
      "inputs": [],
      "name": "nonceGetter",
      "outputs": [
        {
          "internalType": "uint256",
          "name": "",
          "type": "uint256"
        }
      ],
      "stateMutability": "view",
      "type": "function"
    }
  ],
  "bytecode": "60806040526101f460025534801561001657600080fd5b50600080546001600160a01b03191633179055610272806100386000396000f3fe608060405234801561001057600080fd5b50600436106100575760003560e01c806334fbd01a1461005c578063c32f217114610071578063db603c681461008c578063df8b2e9a14610095578063f80fac14146100c0575b600080fd5b61006f61006a3660046101c7565b6100c8565b005b61007961012b565b6040519081526020015b60405180910390f35b61007960025481565b6000546100a8906001600160a01b031681565b6040516001600160a01b039091168152602001610083565b61006f610142565b6000546001600160a01b031633146101265760405162461bcd60e51b815260206004820152601960248201527f596f7520617265206e6f74207468652043616e6479204d616e00000000000000604482015260640160405180910390fd5b600255565b6000438161013a6001836101f6565b409392505050565b600061014c61012b565b604080516000808252602082019092529192505081816000815181106101745761017461020d565b602090810291909101015280518290829061018d61020d565b602090810291909101015260015b60058110156101c2574283146101b057600080fd5b806101ba81610223565b91505061019b565b505050565b6000602082840312156101d957600080fd5b5035919050565b634e487b7160e01b600052601160045260246000fd5b600082821015610208576102086101e0565b500390565b634e487b7160e01b600052603260045260246000fd5b600060018201610235576102356101e0565b506001019056fea2646970667358221220825d520a9631ce4f35144dea830005374793d16ea74cee0294c66f8bde643acf64736f6c634300080f0033",
  "bytecodeSha1": "8eb68f0cc6c76695794e23b432072fb41783097f",
  "compiler": {
    "evm_version": "istanbul",
    "optimizer": {
      "enabled": true,
      "runs": 200
    },
    "version": "0.8.15+commit.e14f2714"
  },
  "contractName": "CandyShop",
  "language": "Solidity",
  "natspec": {
    "kind": "dev",
    "methods": {},
    "version": 1
  },
  "opcodes": "PUSH1 0x80 PUSH1 0x40 MSTORE CALLVALUE DUP1 ISZERO PUSH2 0x10 JUMPI PUSH1 0x0 DUP1 REVERT JUMPDEST POP PUSH1 0x4 CALLDATASIZE LT PUSH2 0x57 JUMPI PUSH1 0x0 CALLDATALOAD PUSH1 0xE0 SHR DUP1 PUSH4 0x34FBD01A EQ PUSH2 0x5C JUMPI DUP1 PUSH4 0xC32F2171 EQ PUSH2 0x71 JUMPI DUP1 PUSH4 0xDB603C68 EQ PUSH2 0x8C JUMPI DUP1 PUSH4 0xDF8B2E9A EQ PUSH2 0x95 JUMPI DUP1 PUSH4 0xF80FAC14 EQ PUSH2 0xC0 JUMPI JUMPDEST PUSH1 0x0 DUP1 REVERT JUMPDEST PUSH2 0x6F PUSH2 0x6A CALLDATASIZE PUSH1 0x4 PUSH2 0x1C7 JUMP JUMPDEST PUSH2 0xC8 JUMP JUMPDEST STOP JUMPDEST PUSH2 0x79 PUSH2 0x12B JUMP JUMPDEST PUSH1 0x40 MLOAD SWAP1 DUP2 MSTORE PUSH1 0x20 ADD JUMPDEST PUSH1 0x40 MLOAD DUP1 SWAP2 SUB SWAP1 RETURN JUMPDEST PUSH2 0x79 PUSH1 0x2 SLOAD DUP2 JUMP JUMPDEST PUSH1 0x0 SLOAD PUSH2 0xA8 SWAP1 PUSH1 0x1 PUSH1 0x1 PUSH1 0xA0 SHL SUB AND DUP2 JUMP JUMPDEST PUSH1 0x40 MLOAD PUSH1 0x1 PUSH1 0x1 PUSH1 0xA0 SHL SUB SWAP1 SWAP2 AND DUP2 MSTORE PUSH1 0x20 ADD PUSH2 0x83 JUMP JUMPDEST PUSH2 0x6F PUSH2 0x142 JUMP JUMPDEST PUSH1 0x0 SLOAD PUSH1 0x1 PUSH1 0x1 PUSH1 0xA0 SHL SUB AND CALLER EQ PUSH2 0x126 JUMPI PUSH1 0x40 MLOAD PUSH3 0x461BCD PUSH1 0xE5 SHL DUP2 MSTORE PUSH1 0x20 PUSH1 0x4 DUP3 ADD MSTORE PUSH1 0x19 PUSH1 0x24 DUP3 ADD MSTORE PUSH32 0x596F7520617265206E6F74207468652043616E6479204D616E00000000000000 PUSH1 0x44 DUP3 ADD MSTORE PUSH1 0x64 ADD PUSH1 0x40 MLOAD DUP1 SWAP2 SUB SWAP1 REVERT JUMPDEST PUSH1 0x2 SSTORE JUMP JUMPDEST PUSH1 0x0 NUMBER DUP2 PUSH2 0x13A PUSH1 0x1 DUP4 PUSH2 0x1F6 JUMP JUMPDEST BLOCKHASH SWAP4 SWAP3 POP POP POP JUMP JUMPDEST PUSH1 0x0 PUSH2 0x14C PUSH2 0x12B JUMP JUMPDEST PUSH1 0x40 DUP1 MLOAD PUSH1 0x0 DUP1 DUP3 MSTORE PUSH1 0x20 DUP3 ADD SWAP1 SWAP3 MSTORE SWAP2 SWAP3 POP POP DUP2 DUP2 PUSH1 0x0 DUP2 MLOAD DUP2 LT PUSH2 0x174 JUMPI PUSH2 0x174 PUSH2 0x20D JUMP JUMPDEST PUSH1 0x20 SWAP1 DUP2 MUL SWAP2 SWAP1 SWAP2 ADD ADD MSTORE DUP1 MLOAD DUP3 SWAP1 DUP3 SWAP1 PUSH2 0x18D PUSH2 0x20D JUMP JUMPDEST PUSH1 0x20 SWAP1 DUP2 MUL SWAP2 SWAP1 SWAP2 ADD ADD MSTORE PUSH1 0x1 JUMPDEST PUSH1 0x5 DUP2 LT ISZERO PUSH2 0x1C2 JUMPI TIMESTAMP DUP4 EQ PUSH2 0x1B0 JUMPI PUSH1 0x0 DUP1 REVERT JUMPDEST DUP1 PUSH2 0x1BA DUP2 PUSH2 0x223 JUMP JUMPDEST SWAP2 POP POP PUSH2 0x19B JUMP JUMPDEST POP POP POP JUMP JUMPDEST PUSH1 0x0 PUSH1 0x20 DUP3 DUP5 SUB SLT ISZERO PUSH2 0x1D9 JUMPI PUSH1 0x0 DUP1 REVERT JUMPDEST POP CALLDATALOAD SWAP2 SWAP1 POP JUMP JUMPDEST PUSH4 0x4E487B71 PUSH1 0xE0 SHL PUSH1 0x0 MSTORE PUSH1 0x11 PUSH1 0x4 MSTORE PUSH1 0x24 PUSH1 0x0 REVERT JUMPDEST PUSH1 0x0 DUP3 DUP3 LT ISZERO PUSH2 0x208 JUMPI PUSH2 0x208 PUSH2 0x1E0 JUMP JUMPDEST POP SUB SWAP1 JUMP JUMPDEST PUSH4 0x4E487B71 PUSH1 0xE0 SHL PUSH1 0x0 MSTORE PUSH1 0x32 PUSH1 0x4 MSTORE PUSH1 0x24 PUSH1 0x0 REVERT JUMPDEST PUSH1 0x0 PUSH1 0x1 DUP3 ADD PUSH2 0x235 JUMPI PUSH2 0x235 PUSH2 0x1E0 JUMP JUMPDEST POP PUSH1 0x1 ADD SWAP1 JUMP INVALID LOG2 PUSH5 0x6970667358 0x22 SLT KECCAK256 DUP3 0x5D MSTORE EXP SWAP7 BALANCE 0xCE 0x4F CALLDATALOAD EQ 0x4D 0xEA DUP4 STOP SDIV CALLDATACOPY SELFBALANCE SWAP4 0xD1 PUSH15 0xA74CEE0294C66F8BDE643ACF64736F PUSH13 0x634300080F0033000000000000 ",
  "sha1": "887b749172e6231bed0669fac617ff9dc94fafca",
  "source": "pragma solidity ^0.8.10;\n\ncontract CandyShop{\n    address public candyMan;\n    mapping(address=>uint8) candyorders;\n    uint256 public candyRates=500;   //rates in gwei\n\n    event NoChecker(uint256);\n\n    constructor(){\n        candyMan = msg.sender;\n    }\n\n    modifier candyMaker(){\n        require(msg.sender==candyMan,\"You are not the Candy Man\");\n        _;\n    }\n\n    function changeCandyRates(uint256 newRates) public candyMaker{\n        candyRates=newRates;\n    }\n\n    function nonceGetter() public view returns(uint256){\n    \n        uint256 _nonce = block.number;\n        uint finally=uint256(blockhash(block.number-1));\n        return finally;\n    }\n\n    function nonceChecker() public {\n        uint256 current =nonceGetter();\n        uint256[] memory times = new uint256[](0);\n        times[0] =current;\n        times[times.length] =current;\n        for(uint i =1;i<5;i++){\n            require(current == block.timestamp);\n        }\n\n    }\n}\n\n",
  "sourcePath": "contracts/shop.sol",
  "type": "contract"
}